{
  "_format": "hh-sol-artifact-1",
  "contractName": "TransferTokens",
  "sourceName": "contracts/TransferTokens.sol",
  "abi": [
    {
      "anonymous": false,
      "inputs": [
        {
          "indexed": true,
          "internalType": "address",
          "name": "_from",
          "type": "address"
        },
        {
          "indexed": true,
          "internalType": "address",
          "name": "_to",
          "type": "address"
        },
        {
          "indexed": false,
          "internalType": "uint256",
          "name": "_amount",
          "type": "uint256"
        },
        {
          "indexed": false,
          "internalType": "string",
          "name": "_name",
          "type": "string"
        },
        {
          "indexed": false,
          "internalType": "string",
          "name": "_blockchain",
          "type": "string"
        }
      ],
      "name": "Transfer",
      "type": "event"
    },
    {
      "inputs": [],
      "name": "check",
      "outputs": [
        {
          "internalType": "string",
          "name": "",
          "type": "string"
        }
      ],
      "stateMutability": "pure",
      "type": "function"
    },
    {
      "inputs": [
        {
          "internalType": "address payable",
          "name": "_to",
          "type": "address"
        },
        {
          "internalType": "string",
          "name": "_name",
          "type": "string"
        },
        {
          "internalType": "string",
          "name": "_blockchain",
          "type": "string"
        }
      ],
      "name": "transferEther",
      "outputs": [],
      "stateMutability": "payable",
      "type": "function"
    }
  ],
  "bytecode": "0x608060405234801561001057600080fd5b506105ba806100206000396000f3fe6080604052600436106100295760003560e01c806347d26a491461002e578063919840ad1461004a575b600080fd5b6100486004803603810190610043919061038e565b610075565b005b34801561005657600080fd5b5061005f610199565b60405161006c9190610498565b60405180910390f35b600073ffffffffffffffffffffffffffffffffffffffff168373ffffffffffffffffffffffffffffffffffffffff16036100e4576040517f08c379a00000000000000000000000000000000000000000000000000000000081526004016100db90610506565b60405180910390fd5b8273ffffffffffffffffffffffffffffffffffffffff166108fc349081150290604051600060405180830381858888f1935050505015801561012a573d6000803e3d6000fd5b508273ffffffffffffffffffffffffffffffffffffffff163373ffffffffffffffffffffffffffffffffffffffff167f5958983c36c78f71aaec2c8d1eb5f392fd57316d842a6aa664705e3e198b725334858560405161018c9392919061053f565b60405180910390a3505050565b60606040518060400160405280600a81526020017f4a61736820446f73686900000000000000000000000000000000000000000000815250905090565b6000604051905090565b600080fd5b600080fd5b600073ffffffffffffffffffffffffffffffffffffffff82169050919050565b6000610215826101ea565b9050919050565b6102258161020a565b811461023057600080fd5b50565b6000813590506102428161021c565b92915050565b600080fd5b600080fd5b6000601f19601f8301169050919050565b7f4e487b7100000000000000000000000000000000000000000000000000000000600052604160045260246000fd5b61029b82610252565b810181811067ffffffffffffffff821117156102ba576102b9610263565b5b80604052505050565b60006102cd6101d6565b90506102d98282610292565b919050565b600067ffffffffffffffff8211156102f9576102f8610263565b5b61030282610252565b9050602081019050919050565b82818337600083830152505050565b600061033161032c846102de565b6102c3565b90508281526020810184848401111561034d5761034c61024d565b5b61035884828561030f565b509392505050565b600082601f83011261037557610374610248565b5b813561038584826020860161031e565b91505092915050565b6000806000606084860312156103a7576103a66101e0565b5b60006103b586828701610233565b935050602084013567ffffffffffffffff8111156103d6576103d56101e5565b5b6103e286828701610360565b925050604084013567ffffffffffffffff811115610403576104026101e5565b5b61040f86828701610360565b9150509250925092565b600081519050919050565b600082825260208201905092915050565b60005b83811015610453578082015181840152602081019050610438565b60008484015250505050565b600061046a82610419565b6104748185610424565b9350610484818560208601610435565b61048d81610252565b840191505092915050565b600060208201905081810360008301526104b2818461045f565b905092915050565b7f496e76616c696420726563697069656e74206164647265737300000000000000600082015250565b60006104f0601983610424565b91506104fb826104ba565b602082019050919050565b6000602082019050818103600083015261051f816104e3565b9050919050565b6000819050919050565b61053981610526565b82525050565b60006060820190506105546000830186610530565b8181036020830152610566818561045f565b9050818103604083015261057a818461045f565b905094935050505056fea264697066735822122053a6aea5db25e9e351760d5e3b58157b8f534509a478026a6469da212e0f3fe964736f6c63430008120033",
  "linkReferences": {},
  "deployedLinkReferences": {}
}